{
  "_format": "hh-sol-artifact-1",
  "contractName": "MyToken",
  "sourceName": "contracts/mytoken.sol",
  "abi": [
    {
      "inputs": [
        {
          "internalType": "string",
          "name": "_name",
          "type": "string"
        },
        {
          "internalType": "string",
          "name": "_symbol",
          "type": "string"
        }
      ],
      "stateMutability": "nonpayable",
      "type": "constructor"
    },
    {
      "anonymous": false,
      "inputs": [
        {
          "indexed": true,
          "internalType": "address",
          "name": "_from",
          "type": "address"
        },
        {
          "indexed": true,
          "internalType": "address",
          "name": "_to",
          "type": "address"
        },
        {
          "indexed": false,
          "internalType": "uint256",
          "name": "_value",
          "type": "uint256"
        }
      ],
      "name": "Approval",
      "type": "event"
    },
    {
      "anonymous": false,
      "inputs": [
        {
          "indexed": true,
          "internalType": "address",
          "name": "_from",
          "type": "address"
        },
        {
          "indexed": true,
          "internalType": "address",
          "name": "_to",
          "type": "address"
        },
        {
          "indexed": false,
          "internalType": "uint256",
          "name": "_value",
          "type": "uint256"
        }
      ],
      "name": "Transfer",
      "type": "event"
    },
    {
      "inputs": [],
      "name": "Name",
      "outputs": [
        {
          "internalType": "string",
          "name": "",
          "type": "string"
        }
      ],
      "stateMutability": "view",
      "type": "function"
    },
    {
      "inputs": [],
      "name": "Symbol",
      "outputs": [
        {
          "internalType": "string",
          "name": "",
          "type": "string"
        }
      ],
      "stateMutability": "view",
      "type": "function"
    },
    {
      "inputs": [
        {
          "internalType": "address",
          "name": "_from",
          "type": "address"
        },
        {
          "internalType": "address",
          "name": "_to",
          "type": "address"
        },
        {
          "internalType": "uint256",
          "name": "_value",
          "type": "uint256"
        }
      ],
      "name": "TransferFrom",
      "outputs": [
        {
          "internalType": "bool",
          "name": "",
          "type": "bool"
        }
      ],
      "stateMutability": "nonpayable",
      "type": "function"
    },
    {
      "inputs": [
        {
          "internalType": "address",
          "name": "_owner",
          "type": "address"
        },
        {
          "internalType": "address",
          "name": "_spender",
          "type": "address"
        }
      ],
      "name": "allowence",
      "outputs": [
        {
          "internalType": "uint256",
          "name": "",
          "type": "uint256"
        }
      ],
      "stateMutability": "view",
      "type": "function"
    },
    {
      "inputs": [
        {
          "internalType": "address",
          "name": "_spender",
          "type": "address"
        },
        {
          "internalType": "uint256",
          "name": "value",
          "type": "uint256"
        }
      ],
      "name": "approve",
      "outputs": [
        {
          "internalType": "bool",
          "name": "",
          "type": "bool"
        }
      ],
      "stateMutability": "nonpayable",
      "type": "function"
    },
    {
      "inputs": [
        {
          "internalType": "address",
          "name": "_owner",
          "type": "address"
        }
      ],
      "name": "balanceOf",
      "outputs": [
        {
          "internalType": "uint256",
          "name": "",
          "type": "uint256"
        }
      ],
      "stateMutability": "view",
      "type": "function"
    },
    {
      "inputs": [],
      "name": "name",
      "outputs": [
        {
          "internalType": "string",
          "name": "",
          "type": "string"
        }
      ],
      "stateMutability": "view",
      "type": "function"
    },
    {
      "inputs": [],
      "name": "owner",
      "outputs": [
        {
          "internalType": "address",
          "name": "",
          "type": "address"
        }
      ],
      "stateMutability": "view",
      "type": "function"
    },
    {
      "inputs": [],
      "name": "symbol",
      "outputs": [
        {
          "internalType": "string",
          "name": "",
          "type": "string"
        }
      ],
      "stateMutability": "view",
      "type": "function"
    },
    {
      "inputs": [],
      "name": "totalSupply",
      "outputs": [
        {
          "internalType": "uint256",
          "name": "",
          "type": "uint256"
        }
      ],
      "stateMutability": "view",
      "type": "function"
    },
    {
      "inputs": [
        {
          "internalType": "address",
          "name": "_to",
          "type": "address"
        },
        {
          "internalType": "uint256",
          "name": "_value",
          "type": "uint256"
        }
      ],
      "name": "transfer",
      "outputs": [
        {
          "internalType": "bool",
          "name": "",
          "type": "bool"
        }
      ],
      "stateMutability": "nonpayable",
      "type": "function"
    }
  ],
  "bytecode": "0x60806040526103e86000553480156200001757600080fd5b506040516200132a3803806200132a83398181016040528101906200003d919062000220565b816001908051906020019062000055929190620000fe565b5080600290805190602001906200006e929190620000fe565b5033600360006101000a81548173ffffffffffffffffffffffffffffffffffffffff021916908373ffffffffffffffffffffffffffffffffffffffff160217905550600054600460003373ffffffffffffffffffffffffffffffffffffffff1673ffffffffffffffffffffffffffffffffffffffff16815260200190815260200160002081905550505062000403565b8280546200010c9062000328565b90600052602060002090601f0160209004810192826200013057600085556200017c565b82601f106200014b57805160ff19168380011785556200017c565b828001600101855582156200017c579182015b828111156200017b5782518255916020019190600101906200015e565b5b5090506200018b91906200018f565b5090565b5b80821115620001aa57600081600090555060010162000190565b5090565b6000620001c5620001bf84620002bc565b62000293565b905082815260208101848484011115620001de57600080fd5b620001eb848285620002f2565b509392505050565b600082601f8301126200020557600080fd5b815162000217848260208601620001ae565b91505092915050565b600080604083850312156200023457600080fd5b600083015167ffffffffffffffff8111156200024f57600080fd5b6200025d85828601620001f3565b925050602083015167ffffffffffffffff8111156200027b57600080fd5b6200028985828601620001f3565b9150509250929050565b60006200029f620002b2565b9050620002ad82826200035e565b919050565b6000604051905090565b600067ffffffffffffffff821115620002da57620002d9620003c3565b5b620002e582620003f2565b9050602081019050919050565b60005b8381101562000312578082015181840152602081019050620002f5565b8381111562000322576000848401525b50505050565b600060028204905060018216806200034157607f821691505b6020821081141562000358576200035762000394565b5b50919050565b6200036982620003f2565b810181811067ffffffffffffffff821117156200038b576200038a620003c3565b5b80604052505050565b7f4e487b7100000000000000000000000000000000000000000000000000000000600052602260045260246000fd5b7f4e487b7100000000000000000000000000000000000000000000000000000000600052604160045260246000fd5b6000601f19601f8301169050919050565b610f1780620004136000396000f3fe608060405234801561001057600080fd5b50600436106100a95760003560e01c80638052474d116100715780638052474d146101685780638da5cb5b1461018657806395d89b41146101a4578063a77a8230146101c2578063a9059cbb146101f2578063c0d84ce514610222576100a9565b806306fdde03146100ae578063095ea7b3146100cc57806318160ddd146100fc5780633045aaf31461011a57806370a0823114610138575b600080fd5b6100b6610252565b6040516100c39190610c6b565b60405180910390f35b6100e660048036038101906100e19190610b70565b6102e4565b6040516100f39190610c50565b60405180910390f35b6101046103d6565b6040516101119190610cad565b60405180910390f35b6101226103df565b60405161012f9190610c6b565b60405180910390f35b610152600480360381019061014d9190610abc565b61046d565b60405161015f9190610cad565b60405180910390f35b6101706104b6565b60405161017d9190610c6b565b60405180910390f35b61018e610544565b60405161019b9190610c35565b60405180910390f35b6101ac61056a565b6040516101b99190610c6b565b60405180910390f35b6101dc60048036038101906101d79190610ae5565b6105fc565b6040516101e99190610cad565b60405180910390f35b61020c60048036038101906102079190610b70565b610683565b6040516102199190610c50565b60405180910390f35b61023c60048036038101906102379190610b21565b610822565b6040516102499190610c50565b60405180910390f35b60606001805461026190610de9565b80601f016020809104026020016040519081016040528092919081815260200182805461028d90610de9565b80156102da5780601f106102af576101008083540402835291602001916102da565b820191906000526020600020905b8154815290600101906020018083116102bd57829003601f168201915b5050505050905090565b600081600560003373ffffffffffffffffffffffffffffffffffffffff1673ffffffffffffffffffffffffffffffffffffffff16815260200190815260200160002060008573ffffffffffffffffffffffffffffffffffffffff1673ffffffffffffffffffffffffffffffffffffffff168152602001908152602001600020819055508273ffffffffffffffffffffffffffffffffffffffff163373ffffffffffffffffffffffffffffffffffffffff167f8c5be1e5ebec7d5bd14f71427d1e84f3dd0314c0f7b2291e5b200ac8c7c3b925846040516103c49190610cad565b60405180910390a36001905092915050565b60008054905090565b600280546103ec90610de9565b80601f016020809104026020016040519081016040528092919081815260200182805461041890610de9565b80156104655780601f1061043a57610100808354040283529160200191610465565b820191906000526020600020905b81548152906001019060200180831161044857829003601f168201915b505050505081565b6000600460008373ffffffffffffffffffffffffffffffffffffffff1673ffffffffffffffffffffffffffffffffffffffff168152602001908152602001600020549050919050565b600180546104c390610de9565b80601f01602080910402602001604051908101604052809291908181526020018280546104ef90610de9565b801561053c5780601f106105115761010080835404028352916020019161053c565b820191906000526020600020905b81548152906001019060200180831161051f57829003601f168201915b505050505081565b600360009054906101000a900473ffffffffffffffffffffffffffffffffffffffff1681565b60606002805461057990610de9565b80601f01602080910402602001604051908101604052809291908181526020018280546105a590610de9565b80156105f25780601f106105c7576101008083540402835291602001916105f2565b820191906000526020600020905b8154815290600101906020018083116105d557829003601f168201915b5050505050905090565b6000600560008473ffffffffffffffffffffffffffffffffffffffff1673ffffffffffffffffffffffffffffffffffffffff16815260200190815260200160002060008373ffffffffffffffffffffffffffffffffffffffff1673ffffffffffffffffffffffffffffffffffffffff16815260200190815260200160002054905092915050565b600081600460003373ffffffffffffffffffffffffffffffffffffffff1673ffffffffffffffffffffffffffffffffffffffff168152602001908152602001600020541015610707576040517f08c379a00000000000000000000000000000000000000000000000000000000081526004016106fe90610c8d565b60405180910390fd5b81600460003373ffffffffffffffffffffffffffffffffffffffff1673ffffffffffffffffffffffffffffffffffffffff16815260200190815260200160002060008282546107569190610d3a565b9250508190555081600460008573ffffffffffffffffffffffffffffffffffffffff1673ffffffffffffffffffffffffffffffffffffffff16815260200190815260200160002060008282546107ac9190610ce4565b925050819055508273ffffffffffffffffffffffffffffffffffffffff163373ffffffffffffffffffffffffffffffffffffffff167fddf252ad1be2c89b69c2b068fc378daa952ba7f163c4a11628f55a4df523b3ef846040516108109190610cad565b60405180910390a36001905092915050565b6000600560008573ffffffffffffffffffffffffffffffffffffffff1673ffffffffffffffffffffffffffffffffffffffff16815260200190815260200160002060003373ffffffffffffffffffffffffffffffffffffffff1673ffffffffffffffffffffffffffffffffffffffff168152602001908152602001600020548211156108e3576040517f08c379a00000000000000000000000000000000000000000000000000000000081526004016108da90610c8d565b60405180910390fd5b81600560008673ffffffffffffffffffffffffffffffffffffffff1673ffffffffffffffffffffffffffffffffffffffff16815260200190815260200160002060003373ffffffffffffffffffffffffffffffffffffffff1673ffffffffffffffffffffffffffffffffffffffff168152602001908152602001600020600082825461096f9190610d3a565b9250508190555081600460008673ffffffffffffffffffffffffffffffffffffffff1673ffffffffffffffffffffffffffffffffffffffff16815260200190815260200160002060008282546109c59190610d3a565b9250508190555081600460008573ffffffffffffffffffffffffffffffffffffffff1673ffffffffffffffffffffffffffffffffffffffff1681526020019081526020016000206000828254610a1b9190610ce4565b925050819055508273ffffffffffffffffffffffffffffffffffffffff168473ffffffffffffffffffffffffffffffffffffffff167fddf252ad1be2c89b69c2b068fc378daa952ba7f163c4a11628f55a4df523b3ef84604051610a7f9190610cad565b60405180910390a3600190509392505050565b600081359050610aa181610eb3565b92915050565b600081359050610ab681610eca565b92915050565b600060208284031215610ace57600080fd5b6000610adc84828501610a92565b91505092915050565b60008060408385031215610af857600080fd5b6000610b0685828601610a92565b9250506020610b1785828601610a92565b9150509250929050565b600080600060608486031215610b3657600080fd5b6000610b4486828701610a92565b9350506020610b5586828701610a92565b9250506040610b6686828701610aa7565b9150509250925092565b60008060408385031215610b8357600080fd5b6000610b9185828601610a92565b9250506020610ba285828601610aa7565b9150509250929050565b610bb581610d6e565b82525050565b610bc481610d80565b82525050565b6000610bd582610cc8565b610bdf8185610cd3565b9350610bef818560208601610db6565b610bf881610e79565b840191505092915050565b6000610c10601283610cd3565b9150610c1b82610e8a565b602082019050919050565b610c2f81610dac565b82525050565b6000602082019050610c4a6000830184610bac565b92915050565b6000602082019050610c656000830184610bbb565b92915050565b60006020820190508181036000830152610c858184610bca565b905092915050565b60006020820190508181036000830152610ca681610c03565b9050919050565b6000602082019050610cc26000830184610c26565b92915050565b600081519050919050565b600082825260208201905092915050565b6000610cef82610dac565b9150610cfa83610dac565b9250827fffffffffffffffffffffffffffffffffffffffffffffffffffffffffffffffff03821115610d2f57610d2e610e1b565b5b828201905092915050565b6000610d4582610dac565b9150610d5083610dac565b925082821015610d6357610d62610e1b565b5b828203905092915050565b6000610d7982610d8c565b9050919050565b60008115159050919050565b600073ffffffffffffffffffffffffffffffffffffffff82169050919050565b6000819050919050565b60005b83811015610dd4578082015181840152602081019050610db9565b83811115610de3576000848401525b50505050565b60006002820490506001821680610e0157607f821691505b60208210811415610e1557610e14610e4a565b5b50919050565b7f4e487b7100000000000000000000000000000000000000000000000000000000600052601160045260246000fd5b7f4e487b7100000000000000000000000000000000000000000000000000000000600052602260045260246000fd5b6000601f19601f8301169050919050565b7f4e6f7420656e6f7567682062616c616e63650000000000000000000000000000600082015250565b610ebc81610d6e565b8114610ec757600080fd5b50565b610ed381610dac565b8114610ede57600080fd5b5056fea2646970667358221220786d4586dd1360e8cf25353f533d074d0f6258a4ec4202bcf6766b8c31b9b6f364736f6c63430008040033",
  "linkReferences": {},
  "deployedLinkReferences": {}
}